:060000000A128A110C280F
:10000800FE00030EF0000A08F1000A168A11802982
:100018000A128A110F288317B430FD001D30FE0024
:100028004130FF00A83084000A168A1171210A1293
:100038008A118313E730FD001D30FE006730FF0092
:10004800D93084000A168A1171210A128A110A12FB
:100058008A1501200A128A11D8000A128A1502206C
:100068000A128A11D900A0308400D9300A168A15DC
:1000780004250A128A11D401D501D601D701F90144
:10008800FA01FB0183010A128A114A288316031711
:10009800A701A501900183160313630883160317AC
:1000A800A10083160313640883160317A20083169E
:1000B8000313650883160317A300A8308400913042
:1000C80083120313D0000C30D10083170008D2002C
:1000D800040AD3005008840052088000040AD000A3
:1000E80053088400D10B69280A168A11EB210A12D9
:1000F8008A11A13083120313A400A5010A168A11DC
:10010800A9230A128A113F30F5009130F600003019
:100118000A168A15BB260A128A110A168A15982504
:100128000A128A11720883120313D0007308D100CF
:10013800D201D3015308A3005208A2005108A1001C
:100148005008A00000300A168A112D250A128A11BB
:10015800831203132308B5002208B4002108B30052
:100168002008B2004130B1002530B0004730AF0060
:10017800AE30AE000A128A1545220A128A1183127D
:1001880003133108CB003008CA002F08C9002E0815
:10019800C8000A128A1181270A128A1183120313CE
:1001A800480883160317A60001300A168A156B271C
:1001B8000A128A1183160317A40000300A168A153A
:1001C8006B270A128A1183160317A0002C309D0092
:1001D80001309E00FF309D0703189E0AFF309E07DE
:1001E8001D0A031DFB281E0A031DFB28FC28EE28F8
:1001F8003E302406031D012902291D29A130F200E1
:100208004430F3009130F4000A128A1503200A12D0
:100218008A11A13083120313A4008316031726083A
:1002280083120313A5000A168A11A9230A128A1138
:10023800372C3D302406031D222923295229063054
:1002480025020318282929295229A130F200250856
:1002580083120313D0005007913E840083170008CF
:10026800F300840A00088403F4000A128A150320A4
:100278000A128A11A13083120313A40083160317EC
:10028800260883120313A5000A168A11A9230A1245
:100298008A11013083160317A507372C3B30240633
:1002A800031D572958298429250803195C295D2924
:1002B80084290130A502A130F20025088312031316
:1002C800D0005007913E840083170008F300840A89
:1002D80000088403F4000A128A1503200A128A11FE
:1002E800A13083120313A400831603172608831270
:1002F8000313A5000A168A11A9230A128A11372C9A
:1003080037302406031989298A2990292F30240691
:10031800031D8F299029C4292708031D942995298D
:10032800C4290130A7000A168A1575250A128A11F0
:100338009530F6009030F7008130F8000A168A15DB
:100348003C270A128A11F201C4300A168A11B52113
:100358000A128A11F2010F300A168A11B5210A12FF
:100368008A11A53083120313D000D00BB929BC29F8
:100378001030831603179F00831203131215372CAE
:1003880002302706031DC929CA29922A37302006B8
:10039800031DCF29D029922A013083160313B907E8
:1003A800FF30390783120313D00015305002031CA5
:1003B800DE29DF29922A1211812A0A168A15752543
:1003C8000A128A11153083160317A7008316031320
:1003D800B901A130F2005930F3009130F4000A124B
:1003E8008A1503200A128A11A13083120313A4006C
:1003F80083160317260883120313A5000A168A1109
:10040800A9230A128A1183120313D701372C0A165B
:100418008A1575250A128A11173083160317A70043
:1004280083160313B901A130F2005330F300913061
:10043800F4000A128A1503200A128A11F8290A16EA
:100448008A1575250A128A11163083160317A70014
:1004580083160313B901A130F2005630F30091302E
:10046800F4000A128A1503200A128A11F8290A16BA
:100478008A1575250A128A11183083160317A700E2
:1004880083160313B901A130F2006530F3009130EF
:10049800F4000A128A1503200A128A11F8290A168A
:1004A8008A1575250A128A11213083160317A700A9
:1004B80083160313B901A130F2005F30F3009130C5
:1004C800F4000A128A1503200A128A11A130831235
:1004D8000313A40083160317260883120313A50029
:1004E8000A168A11A9230A128A1183120313D70143
:1004F8003430831603179F00372C5708003A031926
:10050800E129013A03190B2A033A0319232A013A6C
:1005180003193B2A073A0319532A372C1530831637
:10052800031727060319992A9A2AAC2A173027068F
:1005380003199F2AA02AAC2A163027060319A52AD0
:10054800A62AAC2A02302706031DAB2AAC2AEA2ABF
:100558002F302006031DB12AB22AEA2A0130831659
:100568000313B907FF30390783120313D00015307E
:100578005002031CC02AC12AEA2A0A168A157525C0
:100588000A128A118316031725080319CC2ACD2AC3
:10059800E32AA130F200250883120313D000500784
:1005A800FE3E913E840083170008F300840A000889
:1005B8008403F4000A128A1503200A128A1183168A
:1005C8000317A70183160313B901372C15308316B7
:1005D800031727060319F12AF22AFE2A17302706DD
:1005E8000319F72AF82AFE2A16302706031DFD2AC2
:1005F800FE2A372B37302006031D032B042B372BFD
:10060800013083160313B907FF3039078312031328
:10061800D00015305002031C122B132B372B0A164F
:100628008A1575250A128A1183120313D701A1307E
:10063800F20083160317250883120313D00050070E
:10064800913E840083170008F300840A000884039D
:10065800F4000A128A1503200A128A11023083163E
:100668000317A700E62A372CA13083120313A5002D
:1006780083160317260883120313A6000A168A1185
:10068800FE220A128A11562C0A168A1575250A1294
:100698008A1183160317A701F2010C300A168A1172
:1006A800B5210A128A11A53083120313D000D00B8A
:1006B8005B2B5E2B831203131211562C0A168A1514
:1006C80075250A128A11023083160317A700053010
:1006D80083160313BA00F2010C300A168A11B521E9
:1006E8000A128A11A53083120313D000D00B7A2B7B
:1006F8007D2B562C1F0883120313A500831603179E
:1007080024080A128A158A200A128A11253A03191E
:10071800482B033A0319622B562C83120313121524
:100728008316031720080A168A11E3250A128A116C
:10073800253A031DA02BA12B562C25308316031711
:10074800A700562C24080A128A1149260A128A116F
:10075800562C0A168A15D0250A128A11562C0A1602
:100768008A11E5260A128A11562C023083160317BD
:10077800A700562CA130F200831603172508831210
:100788000313D0005007913E840083170008F3003C
:10079800840A00088403F4000A128A1503200A1246
:1007A8008A1183160317A701562C20080A128A15E6
:1007B8000F240A128A11003A0319BE2B023A0319B0
:1007C800B92B562C0A168A1575250A128A11F201B8
:1007D8000C300A168A11B5210A128A11A530831223
:1007E8000313D000D00BF62BF92BA130F20083169F
:1007F8000317250883120313D0005007913E840085
:1008080083170008F300840A00088403F4000A121E
:100818008A1503200A128A11023083160317A700CB
:1008280020309F00562C1F0883120313A50083163F
:10083800031724080A128A115E240A128A11333A0D
:100848000319E62B562C0A168A1575250A128A11E1
:1008580083160317A701F2010C300A168A11B52175
:100868000A128A11572B831603172708003A03190F
:10087800382B013A03197E2B033A0319912B173AA7
:100888000319A62B033A0319B32B013A0319AD2B0D
:100898000F3A0319D92B393A0319172C043A0319BB
:1008A800272C562C2030831603179F0091280A12F4
:1008B8008A110C2883120313A90034302506031D5E
:1008C800662C672C712C013083160313A9000030A5
:1008D800AA00D501D601D701D801373083122906DD
:1008E800031D772C782CA12C831603132808803A33
:1008F800FF0080307F02031D832C04302702031879
:10090800862C872CA12C831603132708D53E840038
:100918003130831380000130A7070318A80A00307C
:10092800A8072708C43E83120313A4002A300A1616
:100938008A15AA250A128A11D12C2F308312031383
:100948002906031DA82CA92CD12C831603132808CB
:10095800803AFF0080307F02031DB42C0430270248
:100968000318B72CB82CD12C831603132708D53EAF
:1009780084003030831380000130A7070318A80AC9
:100988000030A8072708C43E83120313A4002A30A6
:100998000A168A15AA250A128A118316031329032F
:1009A8002A04031DD82CD92C102D2808803AFF00C2
:1009B80080307F02031DE22C043027020318E52C47
:1009C800E62C102D83160313A901AA010A168A150D
:1009D80075250A128A113430F6009030F7008030FD
:1009E800F8000A168A153C270A128A11F201C43047
:1009F8000A168A11B5210A128A11F2010F300A1655
:100A08008A11B5210A128A11A53083120313A60090
:100A1800A60B0C2D0F2D472D043083160313270624
:100A28002804031D182D192D472D29082A04031DF4
:100A38001E2D1F2D472D3F3083120313A9000230AE
:100A480083160313A9000030AA000A168A15752513
:100A58000A128A11F2010F300A168A11B5210A12F8
:100A68008A11A53083120313A600A60B392D3C2D3D
:100A78004530F6009030F7008030F8000A168A15E5
:100A88003C270A128A113730831203132906031DE3
:100A98004E2D4F2D7F2D831603132608803AFF0015
:100AA80080307F02031D5A2D0430250203185D2D66
:100AB8005E2D7F2D02308316031329062A04031D99
:100AC800662D672D7F2D2508D13E84003130831394
:100AD80080000130A5070318A60A0030A6072508DC
:100AE800C43E83120313A4002A300A168A15AA25C5
:100AF8000A128A11B62D2F30831203132906031DFB
:100B0800862D872DB62D831603132608803AFF00FD
:100B180080307F02031D922D043025020318952D85
:100B2800962DB62D02308316031329062A04031DB9
:100B38009E2D9F2DB62D2508D13E8400303083137D
:100B480080000130A5070318A60A0030A60725086B
:100B5800C43E83120313A4002A300A168A15AA2554
:100B68000A128A1104308316031325062604031D6E
:100B7800BE2DBF2D472EA701A801A501A601D13082
:100B8800F200D530F3000430F4000030F5000A1606
:100B98008A1166220A128A1172087304031DD52D60
:100BA800D62D192E0A168A1575250A128A11F201F0
:100BB8000C300A168A11B5210A128A11A53083123F
:100BC8000313A600A60BE62DE92DD530F50000305D
:100BD800F60000300A168A15BB260A128A1123303D
:100BE800F6009030F7008030F8000A168A153C2786
:100BF8000A128A11F530F6009030F700C230F8007A
:100C08000A168A153C270A128A11333083120313F5
:100C1800A800BB30A700DF30A600A60B112EA70B3B
:100C2800112EA80B112E3330482E0A168A15752559
:100C38000A128A11F2010C300A168A11B5210A1219
:100C48008A11A53083120313A600A60B292E2C2E79
:100C58000030F6009030F7008030F8000A168A1548
:100C68003C270A128A11273083120313A8000D307B
:100C7800A7002530A600A60B3F2EA70B3F2EA80BDA
:100C88003F2E462E172E3030080083120313B20071
:100C980037303206031D512E522E792E5908803ACC
:100CA800A5007A08803A2502031D5C2E79085802AF
:100CB800031C5F2E602E912E0130F9070318FA0AE3
:100CC8000030FA07831203135908803AA5007A08FE
:100CD800803A2502031D722E790858020318752ED2
:100CE800762E912EF901FA01912E2F303206031D2E
:100CF8007E2E7F2E912EFA1B822E832E912EFF3070
:100D0800F9070318FA0AFF30FA07FA1F8C2E8D2EFE
:100D1800912E5908FA005808F90083120313580A4B
:100D2800031D9A2E590A031D9A2E9B2EA72E763044
:100D3800F6009030F7008030F8000A168A153C2734
:100D48000A128A11802F0A30F20079080A168A15C9
:100D5800BD250A128A11053E83120313B300D02E53
:100D6800F630F20079080A168A15BD250A128A118A
:100D7800273E831203133307A5002508FB3E840092
:100D880033080A168A1511270A128A11831380005C
:100D9800013083120313B3077A08F3007908F200CD
:100DA8000A30F4000030F5000A168A154A260A129D
:100DB8008A117208103E83120313A50073080318E2
:100DC800013E003EA6002608803A803C031DEE2E18
:100DD80025083302031CF12EF22EB42E1230F60031
:100DE8009030F7008030F8000A168A153C270A125E
:100DF8008A11C03083120313A4007908303E0A1602
:100E08008A15AA250A128A11C23083120313A40074
:100E180027080A168A15AA250A128A11C3308312CE
:100E28000313A40028080A168A15AA250A128A118B
:100E3800C43083120313A4003A300A168A15AA256F
:100E48000A128A11C53083120313A40029080A164E
:100E58008A15AA250A128A11C63083120313A40020
:100E68002A080A168A15AA250A128A11C730831277
:100E78000313A4003A300A168A15AA250A128A1101
:100E8800C83083120313A4002B080A168A15AA2552
:100E98000A128A11C93083120313A4002C080A16F7
:100EA8008A15AA250A128A11CB3083120313A400CB
:100EB8002D080A168A15AA250A128A11CC3083121F
:100EC8000313A4002E080A168A15AA250A128A11E5
:100ED800CE3083120313A4002F080A168A15AA25F8
:100EE8000A128A11CF3083120313A40030080A169D
:100EF8008A15AA250A128A110800031083120313FF
:100F08004A0D4B0DF7007708031D8B2F8C2F952F5B
:100F18000030CB000030CA000030C9000030C800E3
:100F2800F62F4808CC004908CD004A08CE004B08E7
:100F3800CF001F300310CF0CCE0CCD0CCC0CFF3ED5
:100F4800031D9E2F4C08F600CA17FF30C805FF3056
:100F5800C905FF30CA050030CB059630F702F71FE8
:100F6800B62FB72FCF2F7708803A973E0318BD2F9B
:100F7800BE2FBF2F8C2F01300310CB0CCA0CC90C0D
:100F8800C80CFF3E031DC02F0130F707031DCD2FEE
:100F9800CE2FBF2FE62F20307702031CD42FD52F5A
:100FA800E12F8C2F0130CC000310C80DC90DCA0DDC
:100FB800CB0DCC0BD82F0130F7027708031DE52F96
:100FC800E62FD62F76080319EA2FEB2FF62FC8093C
:100FD800C909CA09CB09C80A0319C90A0319CA0ADF
:100FE8000319CB0A08000A168A154D250A128A1118
:080FF800831603131115080014
:10100200FF34FF347208F7007408F6007308F50025
:10101200F30A0319F40A760883120313FF00750812
:1010220084000A168A1500200A128A15FF00770822
:10103200F70A84007F08831780000008031D222816
:101042002328052808000030F6000030F5000030A3
:10105200F4000030F3008312031323082204210456
:10106200200403193528362881280130F700442846
:101072000130F2000310A00DA10DA20DA30DF20B81
:101082003B280130F707A31F472848283928013099
:10109200F2000310F30DF40DF50DF60DF20B4A28D4
:1010A20023082702031D5F2822082602031D5F284A
:1010B20021082502031D5F2820082402031C622840
:1010C200632872282008A4022108031C210FA5020C
:1010D2002208031C220FA6022308031C230FA702C7
:1010E200731401300310A30CA20CA10CA00CFF3E40
:1010F200031D73280130F702031D80288128482828
:101102007608A3007508A2007408A1007308A00065
:10111200080083120313AD0010302506031D922828
:101122009328A82883160313CD01CE01CF01D00145
:1011320083120313D401033083160313AB003F3031
:1011420083120313AD00053083160313BA0083160E
:1011520003133A08031DAE28AF28B1282530442ACC
:101162003730831203132D06031DB828B928D5285A
:10117200043054020318BE28BF28D5285408CD3E97
:1011820084003130831380000130D4075408C43EF8
:10119200A4002A300A168A15AA250A128A150530D1
:1011A20083160313BA00F3282F302D06031DDA2805
:1011B200DB28F328043054020318E028E128F3283E
:1011C2005408CD3E84003030831380000130D407B0
:1011D2005408C43EA4002A300A168A15AA250A1207
:1011E2008A15D028043083125406031DF928FA28E0
:1011F200442AAE012E08293E84002E080A168A15BA
:1012020011270A128A1583138000013083120313F7
:10121200AE0704302E02031C0F291029FB28CD3003
:10122200F2002930F3000430F4000030F5000A1611
:101232008A1166220A128A1572087304031D222972
:10124200232952290A168A1575250A128A15F201CE
:101252000C300A168A11B5210A128A15A53083129A
:101262000313A600A60B33293629B230F6009030BC
:10127200F7008030F8000A168A153C270A128A15F0
:10128200273083120313A8000D30A7002530A600D3
:10129200A60B4929A70B4929A80B49295029263011
:1012A200442A013083160313AB022B08031D5A296B
:1012B2005B29D4290A168A1575250A128A15F201A4
:1012C2000C300A168A11B5210A128A15A53083122A
:1012D2000313A600A60B6B296E296630F600903028
:1012E200F7008030F8000A168A153C270A128A1580
:1012F2000230F6009130F700C030F8000A168A1565
:101302003C270A128A153A30F6009130F700CC30A9
:10131200F8000A168A153C270A128A153C308312F5
:101322000313D600C829C930A4000A30F2000030E5
:10133200F3005608A600A7012608F4002708F500C6
:101342000A168A11C8240A128A157208303E0A1631
:101352008A15AA250A128A15CA3083120313A40019
:101362000A30F2000030F3005608A600A701260852
:10137200F4002708F5000A168A1152230A128A1568
:101382007208303E0A168A15AA250A128A15831295
:1013920003135608031DCE29CF299429033083163F
:1013A2000313AB00182A0A168A1575250A128A1524
:1013B200F2010C300A168A11B5210A128A15A530DB
:1013C20083120313A600A60BE429E7298630F60050
:1013D2009030F7008030F8000A168A153C270A126E
:1013E2008A15C030F6009030F700C030F8000A16B7
:1013F2008A153C270A128A15CE3083120313A400E1
:10140200831603132B08303E0A168A15AA250A12E0
:101412008A15333083120313A800BB30A700DF30D4
:10142200A600A60B122AA70B122AA80B122A0A162A
:101432008A1575250A128A159530F6009030F70044
:101442008130F8000A168A153C270A128A15F20121
:10145200C4300A168A11B5210A128A15F2010F3018
:101462000A168A11B5210A128A15A53083120313AE
:10147200A600A60B3A2A3D2A83120313D401053093
:1014820083160313BA000800831203133508BF0042
:101492008030BF053508B6003607C600B41F522A91
:1014A200532A542A461446080319582A592A692AE3
:1014B200460A031D5D2A5E2A662A0030B500003006
:1014C200B4000030B3000030B200B417B501712A85
:1014D2000030B5000030B4000030B3000030B2007C
:1014E20031088039BF063108B6003607C700B01F81
:1014F2007B2A7C2A7D2A471447080319812A822ADB
:10150200922A470A031D862A872A8F2A0030B100B1
:101512000030B0000030AF000030AE00B017B101B3
:101522009A2A0030B1000030B0000030AF00003025
:10153200AE00310830042F042E04031DA12AA22A72
:10154200B92A0030B5000030B4000030B3000030DA
:10155200B2008030B4047F30B5043F08B5043508CA
:10156200B1003408B0003308AF003208AE000E2CD0
:101572004608031DBD2ABE2AC72A0030B10000302A
:10158200B0000030AF000030AE000E2C4608B600AE
:10159200B7013708B90047083602B800031CB9037F
:1015A20038087F3EC00039080318013E003EC100E2
:1015B2003508BE003408BD003308BC003208BB0049
:1015C2000030B5000030B4000030B3000030B2008B
:1015D2000030C5000030C4000030C3000030C2003B
:1015E200C7013B2B47080319F72AF82A182B0130A9
:1015F200B6000310BB0DBC0DBD0DBE0DB60BFA2A15
:101602000130B6000310B20DB30DB40DB50DB60B1B
:10161200032BC51F0D2B0E2B0F2B32140130B600DE
:101622000310C20DC30DC40DC50DB60B112B31082D
:101632003E02031D262B30083D02031D262B2F08D8
:101642003C02031D262B2E083B02031C292B2A2BAE
:10165200392B45172E08BB022F08031C2F0FBC0283
:101662003008031C300FBD023108031C310FBE02CB
:101672000130C7071A304702031C402B412BF32AC3
:101682003E083D043C043B040319482B492B682BBC
:101692004214682B0130B6000310B20DB30DB40D25
:1016A200B50DB60B4D2BC51F572B582B592B32148A
:1016B2000130B6000310C20DC30DC40DC50DB60B2B
:1016C2005B2BFF30C0070318C10AFF30C107B41FEC
:1016D2006B2B6C2B4B2BC701C51F702B712B8D2BCA
:1016E200FF304205B600FF304305B700FF30440526
:1016F200B8007F304505B90039083804370436048C
:101702000319842B852B882B0130C7008D2B321CAB
:101712008B2B8C2B8D2B852B47080319912B922B0E
:10172200C32B0130B207003003180130B307003079
:1017320003180130B407003003180130B507351C17
:10174200A32BA42BC32B3208B6003308B7003408EE
:10175200B8003508B9000130BA00390DB90CB80C1F
:10176200B70CB60CBA0BAE2B3908B5003808B4006A
:101772003708B3003608B2000130C0070318C10AA7
:101782000030C1074108803AFF0080307F02031D0C
:10179200CC2BFF304002031CCF2BD02BDE2BFF3093
:1017A20083120313C0000030C1000030B5000030C6
:1017B200B4000030B3000030B200831203134108BA
:1017C200803AFF0080307F02031DE92B0130400286
:1017D2000318EC2BED2BFA2B83120313C001C1016A
:1017E2000030B5000030B4000030B3000030B20069
:1017F200BF01831203134008C600461C012C022CB1
:10180200042CB417062C7F30B4054608B60003102A
:10181200360CB5003F08B504B02A08008312031342
:10182200A800013083160313B10703303106031DEC
:101832001B2C1C2C1F2C0130B000B1012F30831245
:1018420003132806031D262C272C6C2C013083162B
:101852000313AD000130AE07FF302E0783120313CE
:10186200A50015302502031C372C382C8F2C83162B
:101872000313AE010A168A1575250A128A15CE308F
:10188200F6009030F7008230F8000A168A153C27DD
:101892000A128A15F530F6009030F700C230F800CF
:1018A2000A168A153C270A128A1527308312031357
:1018B200A7000D30A6002530A500A50B5E2CA60BB7
:1018C2005E2CA70B5E2C652C0A168A1575250A124A
:1018D2008A150030FF2F3F302806031D712C722C11
:1018E2008F2C831603132D03031D782C792C8F2C38
:1018F20003307B0203187E2C7F2C8F2C2E080319B9
:10190200832C842C8F2C0130FB0703307B06031DB4
:101912008B2C8C2C8D2CFB01AD01AE013730831248
:101922002806031D952C962CDB2C013083160313FD
:10193200AC000130AE07FF302E0783120313A5005F
:1019420015302502031CA62CA72CF62C8316031394
:10195200AE010A168A1575250A128A15CE30F600CE
:101962009030F7008230F8000A168A153C270A12D6
:101972008A15F530F6009030F700C230F8000A16EA
:101982008A153C270A128A15273083120313A700EF
:101992000D30A6002530A500A50BCD2CA60BCD2C15
:1019A200A70BCD2CD42C0A168A1575250A128A1576
:1019B2000230FF2F3F302806031DE02CE12CF62CCD
:1019C200831603132C03031DE72CE82CF62C2F0897
:1019D200031DEC2CED2CF62C2E080319F12CF22C05
:1019E200F62C0130AF00AC01AE015630F60090305B
:1019F200F7008030F8000A168A153C270A128A1569
:101A02007B08031D052D062DDE2DC0308312031326
:101A1200A4008316031346080A168A15AA250A1279
:101A22008A15C13083120313A400831603134708D7
:101A32000A168A15AA250A128A15C23083120313BE
:101A4200A4003A300A168A15AA250A128A15C3304A
:101A520083120313A4008316031348080A168A1577
:101A6200AA250A128A15C43083120313A40083160E
:101A7200031349080A168A15AA250A128A15C530BF
:101A820083120313A4003A300A168A15AA250A12F1
:101A92008A158316031330080319502D512D7B2DFF
:101AA200033083120313A7008A30A6005530A50025
:101AB200A50B592DA60B592DA70B592DC6308312F4
:101AC2000313A400831603134A080A168A15AA25CB
:101AD2000A128A15C73083120313A4008316031354
:101AE2004B080A168A15AA250A128A1583160313A9
:101AF200B0019D2D033083120313A7008A30A60084
:101B02005530A500A50B832DA60B832DA70B832D86
:101B1200C63083120313A40000300A168A15AA25C0
:101B22000A128A15C73083120313A40000300A1662
:101B32008A15AA250A128A15831603132F08031978
:101B4200A32DA42D982F35304A06031DA92DAA2DA9
:101B5200B62D39304B06031DAF2DB02DB62D3030CA
:101B6200CB003030CA000130B40039304B06031DBF
:101B7200BB2DBC2DC82D3030CB0035304A020318A6
:101B8200C32DC42DC62D0130CA070130B400303038
:101B92004B02031CCD2DCE2DDB2D39304B02031809
:101BA200D32DD42DDB2D3408031DD82DD92DDB2DBB
:101BB2000130CB07B401AF01982F7B03031DE22D47
:101BC200E32DBB2EC03083120313A400831603132C
:101BD20046080A168A15AA250A128A15C1308312E6
:101BE2000313A4008316031347080A168A15AA25AD
:101BF2000A128A15C23083120313A4003A300A165D
:101C02008A15AA250A128A15C63083120313A40064
:101C1200831603134A080A168A15AA250A128A1578
:101C2200C73083120313A400831603134B080A164A
:101C32008A15AA250A128A15C53083120313A40035
:101C42003A300A168A15AA250A128A158316031330
:101C5200300803192D2E2E2E582E03308312031313
:101C6200A7008A30A6005530A500A50B362EA60B7C
:101C7200362EA70B362EC33083120313A40083160D
:101C8200031348080A168A15AA250A128A15C430AF
:101C920083120313A4008316031349080A168A1534
:101CA200AA250A128A1583160313B0017A2E03306D
:101CB20083120313A7008A30A6005530A500A50B96
:101CC200602EA60B602EA70B602EC3308312031367
:101CD200A40000300A168A15AA250A128A15C430F1
:101CE20083120313A40000300A168A15AA250A12C9
:101CF2008A15831603132F080319802E812EB82EFE
:101D020035304806031D862E872E932E393049061C
:101D1200031D8C2E8D2E932E3030C8003030C9001A
:101D22000130B30039304906031D982E992EA52E95
:101D32003030C900353048020318A02EA12EA32E40
:101D42000130C8070130B30030304902031CAA2E0B
:101D5200AB2EB82E393049020318B02EB12EB82E50
:101D62003308031DB52EB62EB82E0130C907AF01B8
:101D7200B301982F02307B06031DC02EC12E982F6F
:101D8200C23083120313A4003A300A168A15AA2518
:101D92000A128A15C33083120313A4008316031395
:101DA20048080A168A15AA250A128A15C43083120F
:101DB2000313A4008316031349080A168A15AA25D9
:101DC2000A128A15C53083120313A4003A300A1688
:101DD2008A15AA250A128A15C63083120313A40093
:101DE200831603134A080A168A15AA250A128A15A7
:101DF200C73083120313A400831603134B080A1679
:101E02008A15AA250A128A158316031330080319A4
:101E12000B2F0C2F362F033083120313A7008A30A7
:101E2200A6005530A500A50B142FA60B142FA70B47
:101E3200142FC03083120313A40083160313460821
:101E42000A168A15AA250A128A15C13083120313AB
:101E5200A4008316031347080A168A15AA250A1234
:101E62008A1583160313B001582F0330831203130C
:101E7200A7008A30A6005530A500A50B3E2FA60B61
:101E82003E2FA70B3E2FC03083120313A400003055
:101E92000A168A15AA250A128A15C130831203135B
:101EA200A40000300A168A15AA250A128A1583167A
:101EB20003132F0803195E2F5F2F962F3230460629
:101EC200031D642F652F712F33304706031D6A2FC0
:101ED2006B2F712F3030C6003030C7000130B20096
:101EE20039304706031D762F772F832F3030C700F6
:101EF2003230460203187E2F7F2F812F0130C60712
:101F02000130B20030304702031C882F892F962FF0
:101F12003930470203188E2F8F2F962F3208031D58
:101F2200932F942F962F0130C707B201DC2D0F306B
:101F3200831603134B0583120313A50083160313A1
:101F42004A08073983120313A60003300310A60DB3
:101F5200FF3E031DA72F0310260D2504831603132E
:101F6200A2002208F30000300A168A150B260A1274
:101F72008A150F3083160313490583120313A50034
:101F8200831603134808073983120313A60003308C
:101F92000310A60DFF3E031DC92F0310260D2504B5
:101FA20083160313A1002108F30001300A168A15D3
:101FB2000B260A128A150F30831603134705831264
:101FC2000313A50083160313460803398312031370
:101FD200A60003300310A60DFF3E031DEB2F0310D6
:101FE200260D250483160313A0002008F3000230F7
:101FF2000A168A150B260A128A1520300800503458
:1020020061347334733477346F347234643420340B
:102012004D34693473346D346134743463346834E8
:10202200003423342034543449344D34453420347C
:1020320020342034203420344534203420345334A6
:1020420050340034503461347334733477346F3421
:102052007234643420344334683461346E34673407
:1020620065346434003445346E3474346534723407
:1020720020346E3465347734203450346134733410
:102082007334773464340034523465342034453444
:102092006E3474346534723420346E34653477347B
:1020A20020345034613473340034543469346D3420
:1020B200653420342834483448343A344D344D346D
:1020C2003A34533453342934003459346F34753428
:1020D2002034613472346534203462346C346F34A9
:1020E20063346B346534643400344E346F342034DA
:1020F2004C346F3467347334203470347234653442
:10210200733465346E3474340034573472346F343B
:102112006E3467342034503461347334733477341A
:102122006F3472346434003445346E34743465343C
:1021320072342034503461347334733477346F34EE
:102142007234643400344334683461346E34673436
:1021520065342034703461347334733477346434C6
:1021620000344C346F34673469346E342034533461
:1021720075346334633465347334733400344134F6
:102182007434743465346D3470347434733420347C
:102192006C346534663474340034543469346D34C8
:1021A200653420344334683461346E3467346534C2
:1021B200643400344C346F34673473342034433421
:1021C2006C346534613472346534643400344434BC
:1021D2006F3477346E346C346F3461346434203449
:1021E2004C346F346734003453347534633463349D
:1021F200653473347334663475346C346C347934C6
:1022020000347734613469347434203466346F3482
:1022120072342034003443346C34653461347234A3
:1022220020344C346F34673400344C346F346734A8
:10223200733420343A3420340A3400344E346F3448
:1022420020344C346F34673473342E3400345334B6
:10225200653474342034543469346D346534003454
:10226200563469346534773420344C346F346734EF
:1022720000347334653463347334003431343034AD
:102282003134303400344334203400344734313470
:102292000034473432340034473433340034473462
:1022A2003434003443344C34003444344C34003439
:1022B20056344C34003447344E34003443345034B2
:0E22C200003447345234003453345434003462
:1022DA007E088A007F0882000A168A116D210A1672
:1022EA008A118000840A04087D0603190034FF0A53
:1022FA000319FE0A7129831203138C1C8529862966
:10230A00AE29013083160313A3070318A40A003069
:10231A00A407E2302306043003192406031D962974
:10232A009729AC29A301A4018312031356080319A0
:10233A009F29A029A3290130D602AC2983160313A9
:10234A003A080319A929AA29AC290130BA02831229
:10235A008C1071088A00700E8300FE0E7E0E090032
:10236A00F5007218B929BD29831203130915C0296A
:10237A008312031309117508F03988008914A630ED
:10238A00F300F30BC62900008312031389107508A2
:10239A000F39F30003300310F30DFF3E031DD0295C
:1023AA000310730D88008914A630F300F30BDB29A0
:1023BA0000008312031389101B30F4009E30F300CF
:1023CA00F30BE529F40BE52900000800003083121D
:1023DA000313AB000130AA008630A900A030A80080
:1023EA000A168A15CC270A168A110A168A1586250C
:1023FA000A168A110A168A1536250A168A110A1623
:10240A008A15FD240A168A110A168A15F7240A164D
:10241A008A110A168A155A250A168A110030831259
:10242A000313AB000030AA002530A9008030A800B1
:10243A000A168A159A270A168A110B178B1708008B
:10244A00720883120313A0004A2A0130F5020030F1
:10245A00031CF603F6027408F8007308F700F30A7F
:10246A000319F40A770884008317781C8313000879
:10247A00FF002008A00A84007F0883138000000858
:10248A00031D482A492A4A2A572A75087604031D31
:10249A004F2A502A2A2A572A2008840083138001A7
:1024AA000130A0070130F5020030031CF603F602E2
:1024BA00750A031D642A760A031D642A652A512AAD
:1024CA0008000130F4020030031CF503F502740A17
:1024DA00031D732A750A031D732A742A812AF201BD
:1024EA00F301B02A0130F2070130F3070130F40298
:1024FA000030031CF503F5027208840083130008F8
:10250A000319882A892AA22A730884000008031951
:10251A008F2A902AA22A740875040319952A962AE2
:10252A00A22A730884000008F600720884000008D2
:10253A0076060319A12AA22A772A730884000008BA
:10254A00F600720884000008F70076087702F200A5
:10255A00F301031CF303080002300A168A15E62663
:10256A000A168A1183160313A00001300A168A1567
:10257A00E6260A168A1183160313A10000300A16EA
:10258A008A15E6260A168A1183160313A200200862
:10259A00F60004300310F60CFF3E031DCF2A76081E
:1025AA000339303EC60020080F39303EC7002108E3
:1025BA00F60004300310F60CFF3E031DDF2A7608EE
:1025CA000739303EC80021080F39303EC9002208B9
:1025DA00F60004300310F60CFF3E031DEF2A7608BE
:1025EA000739303ECA0022080F39303ECB00CC01F1
:1025FA0008001430F6009030F7008230F8000A160E
:10260A008A153C270A168A110A168A1103240A1601
:10261A008A11831203132508F6000130F700CB3024
:10262A00F8000A168A153C270A168A11CE30831238
:10263A000313A4000A30F2000030F3002608A700B2
:10264A00A8012708F4002808F5000A168A11C824E8
:10265A000A168A117208303E0A168A15AA250A161F
:10266A008A11CF3083120313A4000A30F20000301B
:10267A00F3002608A700A8012708F4002808F50097
:10268A000A168A1152230A168A117208303E0A164D
:10269A008A15AA250A168A110800F701F51F562B72
:1026AA00572B5E2BF409F509F40A0319F50A0130D0
:1026BA00F700F31F612B622B672BF209F309F20A69
:1026CA000319F30A7208730403196C2B6D2B9A2BE6
:1026DA000130F600792B01300310F20DF30DFF3EA5
:1026EA00031D712B0130F607F31F7C2B7D2B702BFA
:1026FA0073087502031D832B72087402031C862B50
:10270A00872B8D2B7208F4027308031CF503F5025C
:10271A0001300310F30CF20CFF3E031D8E2B013027
:10272A00F602031D992B9A2B7D2B770803199E2BF2
:10273A009F2BA42BF409F509F40A0319F50A750865
:10274A00F3007408F20008000A168A11B1220A1668
:10275A008A11BB30F200C630F3000030F4000630B4
:10276A00F5000030F6000A168A1125220A168A1187
:10277A00C130F200831203132408F3000130F4007D
:10278A000230F5000030F6000A168A1125220A16D0
:10279A008A110A30F2000030F3008312031325086D
:1027AA00A600A7012608F4002708F5000A168A11D0
:1027BA00C8240A168A117208303E83160313C3000E
:1027CA000A30F2000030F300831203132508A60032
:1027DA00A7012608F4002708F5000A168A115223D1
:1027EA000A168A117208303E83160313C400C50103
:1027FA000A168A1595260A168A1108000A168A11D7
:10280A00B1220A168A11C23083120313A400831656
:10281A00031346080A168A15AA250A168A11C3300E
:10282A0083120313A4008316031347080A168A1592
:10283A00AA250A168A11C43083120313A4003A3057
:10284A000A168A15AA250A168A11C5308312031395
:10285A00A4008316031348080A168A15AA250A161D
:10286A008A11C63083120313A4008316031349087E
:10287A000A168A15AA250A168A11C7308312031363
:10288A00A4003A300A168A15AA250A168A11C830EF
:10289A0083120313A400831603134A080A168A151F
:1028AA00AA250A168A11C93083120313A4008316B3
:1028BA0003134B080A168A15AA250A168A11080054
:1028CA00C330F700CD30F600F60B692CF70B692CF4
:1028DA00F20133300A168A11B5210A168A111B3001
:1028EA00F7009E30F600F60B782CF70B782C0000D8
:1028FA00F20133300A168A11B5210A168A11A63056
:10290A00F600F60B862C0000F20133300A168A1103
:10291A00B5210A168A11912C922C0000F20102307C
:10292A000A168A11B5210A168A11A630F600F60B84
:10293A009C2C0000F20128300A168A11B5210A16C9
:10294A008A11A630F600F60BA82C0000F20101301D
:10295A000A168A11B5210A168A110430F7003D3089
:10296A00F600F60BB62CF70BB62CBB2CF2010C308A
:10297A000A168A11B5210A168A11A630F600F60B34
:10298A00C42C0000080083120313A101F31FCE2CEC
:10299A00CF2CD62CF209F309F20A0319F30A0130F3
:1029AA00A100F51FD92CDA2CE12CF409F509F40A57
:1029BA000319F50A0130A106A201A30172087304E2
:1029CA000319E82CE92C1E2D0130A000F52C01304A
:1029DA000310F20DF30DFF3E031DED2C0130A0078D
:1029EA00F31FF82CF92CEC2C01300310A20DA30DC7
:1029FA00FF3E031DFA2C73087502031D062D72088B
:102A0A007402031C092D0A2D112D7208F402730891
:102A1A00031CF503F502221401300310F30CF20C27
:102A2A00FF3E031D122D0130A002031D1D2D1E2D78
:102A3A00F92C21080319222D232D282DA209A309D7
:102A4A00A20A0319A30A2308F3002208F2000800C5
:102A5A0083120313A80028080319342D352D492D94
:102A6A00A31F382D392D492D2009AA002109AB00B1
:102A7A002209AC002309AD00AA0A0319AB0A0319FB
:102A8A00AC0A0319AD0A512D2308AD002208AC0087
:102A9A002108AB002008AA002308220421042004EC
:102AAA00031D582D592D622D0030A3000030A200BD
:102ABA000030A1000030A000E22D9630A900702D50
:102ACA000130A90701300310AD0CAC0CAB0CAA0CF9
:102ADA00FF3E031D682DFE302D05031D752D762D35
:102AEA00652D902D0130A9070130AA07003003187F
:102AFA000130AB07003003180130AC07003003186F
:102B0A000130AD0701300310AD0CAC0CAB0CAA0CB4
:102B1A00FF3E031D882DFF302D05031D952D962D93
:102B2A00772DA22D0130A9020130A4000310AA0DAD
:102B3A00AB0DAC0DAD0DA40B9B2DAC1BA52DA62D7D
:102B4A00AC2D023029020318AB2DAC2D972D291874
:102B5A00AF2DB02DB82DFF30AA05FF30AB057F3061
:102B6A00AC05FF30AD050310A90C2908A400A50186
:102B7A00A601A70118300310A40DA50DA60DA70DD7
:102B8A00FF3E031DC02D2408AA042508AB0426080D
:102B9A00AC042708AD0428080319D42DD52DDA2D45
:102BAA00A31FD82DD92DDA2DAD172D08A3002C0877
:102BBA00A2002B08A1002A08A00008008312031310
:102BCA00A7002F302706031DEB2DEC2D032E013015
:102BDA0083160313B7000530BA000130B807FF3077
:102BEA00380783120313A5001F302502031CFE2D8C
:102BFA00FF2D2D2E83160313B8012D2E3F302706E5
:102C0A00031D082E092E2D2E831603133703031DC9
:102C1A000F2E102E2D2E0430831203135702031881
:102C2A00172E182E2D2E83160313380803191E2E5D
:102C3A001F2E2D2E0A168A1575250A168A1101309D
:102C4A0083120313D70783160313B901B701FF2DA4
:102C5A00373083122706031D332E342E4B2E0130B4
:102C6A0083160313B6000530BA000130B807FF30E7
:102C7A00380783120313A5001F302502031C462EB2
:102C8A00472E702E83160313B801702E3F30270685
:102C9A00031D502E512E702E57080319552E562EED
:102CAA00702E831603133603031D5C2E5D2E702EC1
:102CBA0038080319612E622E702E0A168A15752598
:102CCA000A168A11013083120313D70283160313DB
:102CDA00B901B601472E043083125706031D762E1A
:102CEA00772EAA2EC130A4002A300A168A15AA25E0
:102CFA000A168A11831203135708A5002507D73E1F
:102D0A00840083130008F600840A00088403F7008D
:102D1A008230F8000A168A153C270A168A1183128D
:102D2A0003135708A5002507D93E8400831300081A
:102D3A00F600840A00088403F700C230F8000A1675
:102D4A008A153C270A168A11DC2E8130A4002A3003
:102D5A000A168A15AA250A168A1183120313570816
:102D6A00A5002507D93E840083130008F600840ACB
:102D7A0000088403F7008230F8000A168A153C27F7
:102D8A000A168A11831203135708A5002507DB3E8A
:102D9A00840083130008F600840A00088403F700FD
:102DAA00C230F8000A168A153C270A168A118316B9
:102DBA0003133A08031DE22EE32EE42E2530080001
:102DCA00831203135508031DEB2EEC2E002F580A0D
:102DDA00031DF42E590A0319F32EF42E002F163070
:102DEA00F3009130F4000A168A156F260A168A1122
:102DFA0083160313B5018312580A031D082F590AB3
:102E0A00031D082F092FF12F831603133508031DFD
:102E1A000F2F102FF12F1F30F3009130F4000A16F4
:102E2A008A156F260A168A11013083160313B50014
:102E3A00F12F0A30F2008312031355080A168A1575
:102E4A00BD250A168A11053E83120313AF004B2FC4
:102E5A00F630F2008312031355080A168A15BD25A7
:102E6A000A168A11243E831203132F07A000200892
:102E7A00FB3E84002F080A168A1511270A168A11A2
:102E8A0083138000013083120313AF075508A00093
:102E9A00A1012008F2002108F3000A30F4000030F2
:102EAA00F5000A168A154A260A168A117208103E71
:102EBA0083120313A20073080318013E003EA30005
:102ECA002308803A803C031D6C2F22082F02031C22
:102EDA006F2F702F2D2F831203135508303E0A16B9
:102EEA008A152B250A168A1120300A168A152B25CF
:102EFA000A168A118312031324080A168A152B2527
:102F0A000A168A118312031325080A168A152B2515
:102F1A000A168A113A300A168A152B250A168A11B8
:102F2A008312031326080A168A152B250A168A11F4
:102F3A008312031327080A168A152B250A168A11E3
:102F4A003A300A168A152B250A168A118312031398
:102F5A0028080A168A152B250A168A1183120313C2
:102F6A0029080A168A152B250A168A1120300A16EC
:102F7A008A152B250A168A11831203132A080A16A0
:102F8A008A152B250A168A11831203132B080A168F
:102F9A008A152B250A168A1120300A168A152B251E
:102FAA000A168A11831203132C080A168A152B256E
:102FBA000A168A11831203132D080A168A152B255D
:102FCA000A168A110A300A168A152B250A168A1138
:102FDA00013083120313D50783125908803AA000DF
:102FEA0080302002031DFB2F550858020318FE2FBC
:102FFA00FF2F1E2F0800FF1B0A2883137F18831731
:10300A000008840A0319FF0A08007F087F398A002A
:0A301A000408840A0319FF0A82006B
:1039EE008316031306083F38860008008316031358
:1039FE009F17831203131F14080064008001840AAA
:103A0E000406031900340406052D0A168A154D25E1
:103A1E000A168A158316031311140800F2000A16EB
:103A2E008A154D250A168A15720883120313930000
:103A3E0008000A128A11F7270A168A150A168A151D
:103A4E000C250A168A150800F20072088312031359
:103A5E0099000C1E332D342D302D0C1208008316B8
:103A6E0003138801091189100A168A1165240A1692
:103A7E008A150800623491345C34913447349134A1
:103A8E004A3491344D3491345034913483160313A7
:103A9E001419522D532D4D2D11081F39031D582D5C
:103AAE00592D4D2D08008312031312149214FA305F
:103ABE008316031392008C14831203131211080041
:103ACE00313491340C349134E834903428349134B8
:103ADE00A43490344F344E3400340134F2010130AA
:103AEE000A168A11B5210A168A150430F7003D30E0
:103AFE00F600F60B802DF70B802D852D080000307B
:103B0E000A168A15E6260A168A15F6007F30F6057D
:103B1E007608F30000300A168A150B260A168A1547
:103B2E000800831203131F151F199E2D9F2D9B2D09
:103B3E001E08F500831603131E08F4007508F30023
:103B4E007408F2000800F800F2018312031324082F
:103B5E000A168A11B5210A168A15F201F20A780898
:103B6E000A168A11B5210A168A150800F400F30107
:103B7E00741CC22DC32DC52D7208F3070310F20D50
:103B8E000310F40C7408031DCD2DCE2DBF2D73081C
:103B9E000800FF3083120313D800FF30D900DB304A
:103BAE00F6009030F7008230F8000A168A153C278E
:103BBE000A168A15F530F6009030F700C230F8007C
:103BCE000A168A153C270A168A150800F4000A16EA
:103BDE008A150C250A168A15A0300A168A1515257F
:103BEE000A168A1574080A168A1515250A168A15D4
:103BFE0073080A168A1515250A168A150A128A11CD
:103C0E00F7270A168A150800F4000A168A150C25DD
:103C1E000A168A15D0300A168A1515250A168A151F
:103C2E0074080A168A1515250A168A1573080A16B7
:103C3E008A1515250A168A150A128A11F7270A16E9
:103C4E008A150800F2000A168A154D250A168A15DD
:103C5E008316031391150A168A154D250A168A1511
:103C6E00831203131308F3007203031D3F2E402E1D
:103C7E00442E831603139116472E831603139112A7
:103C8E00111673080800F601F701721C4F2E502E04
:103C9E00562E7408F6070318F70A7508F707013051
:103CAE000310F40DF50DFF3E031D572E01300310CA
:103CBE00F30CF20CFF3E031D5E2E72087304031DFF
:103CCE00692E6A2E4C2E7708F3007608F200080053
:103CDE00842E7408FF00730884000A168A150020CB
:103CEE000A168A150A168A152B250A168A15013008
:103CFE00F3070318F40A0030F40774088312031351
:103D0E00FF00730884000A168A1500200A168A1509
:103D1E00003A031D932E942E702E0800013083124C
:103D2E000313D8070318D90A0030D9070A305806EA
:103D3E005904031DA32EA42EA62ED801D9010A3094
:103D4E00F20058080A168A15BD250A168A15053E70
:103D5E00F800BB30F5000030F60078080A168A1518
:103D6E00BB260A168A150800F700D52E7608FF0026
:103D7E00750884000A168A1500200A168A15F300A3
:103D8E0077080A168A15ED250A168A150130F507E9
:103D9E000318F60A0030F6070130F707760883128B
:103DAE000313FF00750884000A168A1500200A16F0
:103DBE008A15003A031DE42EE52EBD2E0800F400F0
:103DCE000A168A150C250A168A15D0300A168A1577
:103DDE0015250A168A1574080A168A1515250A1647
:103DEE008A150A168A1520250A168A15D1300A1642
:103DFE008A1515250A168A1500300A168A152926DF
:103E0E000A168A15F5000A128A11F7270A168A155C
:103E1E0075080800F4000A168A150C250A168A156C
:103E2E00A0300A168A1515250A168A1574080A1660
:103E3E008A1515250A168A150A168A1520250A16B8
:103E4E008A15A1300A168A1515250A168A1500300C
:103E5E000A168A1529260A168A15F5000A128A11DB
:103E6E00F7270A168A1575080800F20178080A164F
:103E7E008A11B5210A168A155A2FF201F20A77080D
:103E8E00FF00760884000A168A1500200A168A1585
:103E9E000A168A11B5210A168A150130F60703187B
:103EAE00F70A0030F707770883120313FF0076082E
:103EBE0084000A168A1500200A168A15003A031D78
:103ECE00692F6A2F442F0800F3007308031D702F0B
:103EDE00712F762F8312031306083F39992F3F3027
:103EEE00831203130605F2003F3072060319802F6A
:103EFE00812F8A2F8316031366080319872F882FA5
:103F0E008A2FE601712F3F3083120605F2003F30F3
:103F1E007206031D932F942F982F013083160313CF
:103F2E00E6003F300800831203139817181628086E
:103F3E00AC002908AD002A08AE002B08AF000430F3
:103F4E000310AC0DAD0DAE0DAF0DFF3E031DA72F33
:103F5E002F08A3002E08A2002D08A1002C08A000F7
:103F6E000130A7003130A6002D30A5000030A4008E
:103F7E000A128A1524200A168A15831203132008A2
:103F8E00FF3E831603139900080083120313941542
:103F9E002808AC002908AD002A08AE002B08AF0097
:103FAE0002300310AC0DAD0DAE0DAF0DFF3E031D77
:103FBE00D82F2F08A3002E08A2002D08A1002C0830
:103FCE00A0000130A7003130A6002D30A500003032
:103FDE00A4000A128A1524200A168A1583120313C6
:103FEE002008FF3E831603139300831203139416C7
:023FFE000800B9
:02400E00FB3F76
:00000001FF
